:020000040040BA
:10000000B8120020110540000D0540000D0540000C
:100010000D0540000D0540000D05400000000000EA
:100020000000000000000000000000000D0540007E
:100030000D054000000000000D0540000D054000CA
:100040000D0540000D0540000D0540000D05400068
:100050000D0540000D0540000D05400000000000AA
:100060000D0540000D054000000000000D0540009A
:100070000D054000000000000D0540000D0540008A
:1000800000000000000000000D0540000D054000CC
:100090000D0540000D0540000D0540000D05400018
:1000A0000D0540000D0540000000000000000000AC
:1000B000000000000D0540000D0540000D0540004A
:1000C0000D0540000D0540000D0540000348044BA0
:1000D000834202D0034B03B1184770475C114000C4
:1000E0005C11400000000000054806490B1AD90FBA
:1000F00001EBA301491002D0034B03B1184770472D
:100100005C1140005C1140000000000010B5064C7E
:10011000237843B9FFF7DAFF044B13B10448AFF378
:1001200000800123237010BD10010020000000009A
:100130005C11400008B5044B1BB104490448AFF3FF
:100140000080BDE80840CFE7000000001401002057
:100150005C11400010B50A4B04469847094B98477C
:100160002046094B9847094B98472046084B98472B
:10017000084B2246102172209847002010BD00BF76
:10018000010F400021074000F90E40000107400028
:10019000030F400045034000F8B511F004040F467A
:1001A00015461E4608D019784C1CE4B294421DD85E
:1001B000601A18440F4B9847BA0708D51034E4B2B8
:1001C000A54213D3A4F110000B4B30449847FB0712
:1001D0000AD51034E4B2A54208D3A4F11000074BAD
:1001E00010213044984710B9AC4201D00420F8BD2A
:1001F0000020FCE7050F4000F10E400055014000D3
:100200001FB5114B6A4603F1100615461868596868
:10021000144603C40833B3422246F7D10B4B0C4CAF
:1002200098470C4B98470C4B98470C4B98472846DF
:100230000B4B98470B4B98470B4A0C4B1021012056
:100240009847A047FDE700BF28114000A5054000E2
:10025000110440003D064000E1064000ED0E400064
:10026000F10E40001D03400099014000DD024000F6
:100270000346014400208B4200D1704713F8012B44
:100280005040082210F0800F4FEA400018BF80F065
:100290004D00013AC0B2F5D1EDE730B50022044679
:1002A00001238B4201D3002030BD14F8015F15B942
:1002B0009D1A85541A460133DBB2F2E710B5027875
:1002C0000024034604701046884200D202B910BDD3
:1002D0001A5C1C541044C0B2F6E70000F8B50C4D8F
:1002E0002B680F2B04DD61200A4B98470120F8BDD5
:1002F000FF2901D96220F7E7074F0C245C433E1920
:1003000001333855C6E901122B600020EFE700BF2A
:10031000EC010020A10640002C01002010B5064C85
:10032000064A00217620A0472346054ABDE8104032
:1003300000217720184700BFDD024000AD034000D8
:10034000CD034000F0B5C1B00C4600251146134B5B
:100350008DF8010022468DF802408DF800500DF115
:1003600003009847A11C0E4B0E4FC9B20DF10100BE
:100370009847261D0DEB0403611DD870C9B20DF816
:100380000650094B684698476C4614F8010B013536
:10039000B847AE42F9DA41B0F0BD00BF510F40009E
:1003A00071024000A10640009B02400007B50323F4
:1003B0008DF807300DF10702034B01217220984799
:1003C000002003B05DF804FB4503400030B50D4B41
:1003D0000D48197885B000220C24D3B28B4202F16B
:1003E000010206DB094B6A4672209847002005B0DF
:1003F00030BD03F1100563436D44C35C05F8103C48
:10040000EBE700BFEC0100202C0100204503400079
:100410002DE9F047374FC2B0002502AE8DF80750E6
:100420003446BA46B847C0B206F8010B58B905239E
:100430008DF80730304B0DF10702012165209847F8
:1004400042B0BDE8F0870135042DEBD12B4E294693
:100450002046B0472A4B61781A6807462948B046BB
:1004600000230C265FFA83F9914502DB08D10123B2
:10047000DEE706FB09FC013310F80CC08C45F1D116
:10048000E3780533BB4202DA0423D1E73546D0478F
:10049000C0B260550028CAD0E3786E1C0433B34262
:1004A000F4DAD047C0B2A0550028EDD1C7F1010160
:1004B00051FA86F1C9B25FFA86FAE019C047AAF18B
:1004C0000201114BC9B20DF109009847635D8342E7
:1004D00001D00223ACE70B4BA17860780C2202FB21
:1004E00009390DEB0203D9F80850E278A8478DF8D6
:1004F00007009FE7BD06400045034000BD024000E5
:10050000EC0100202C01002071024000FEE70000F9
:1005100019491A48814210B520D9194BDA1C121A10
:1005200022F00302C41EA34238BF0022154B984795
:1005300000BF154B1548DA1C121AC11E22F0030227
:10054000994288BF0022124B00219847114B124A52
:100550009A60124B9847124B9847FEE7E8D2084B37
:100560000A1F181A1044C1F10401C842E0D050F823
:10057000042943F8042DF8E75C1140000000002036
:1005800010010020510F4000B8020020100100208F
:100590008510400000ED00E000004000090F400021
:1005A00001024000184B4FF4004270B500205A651C
:1005B000164D174C174EA8470120A8470520A847FD
:1005C000154B002098471548A047154B0020984729
:1005D000144B3E2101209847B0470028FCD0124B15
:1005E00000209847114B98471148A047114A1368BB
:1005F00023F0806313600B20A847BDE870400E4BCA
:100600004FF060510F20184700140E404D0B400072
:10061000090A40003D0B40008D0B4000000E2707EB
:100620006D0A4000F10A4000AD0A40003D0940005B
:1006300010757000000A0E40910840001FB5104B65
:10064000104C4FF46132CDE901324FF40063039353
:1006500008200D4B984701A90C4B2046984720468F
:100660000B4B98470B4B204698470B4C0B490920E6
:10067000A0474FF000610A20A04704B010BD00BFA2
:1006800090AD710000060E404D0B40004107400048
:100690007B074000750740009108400001000008FA
:1006A00070B5044E044D044621463046A847002844
:1006B000FAD170BD00060E408107400037B5064DE7
:1006C000064C0DF107012846A0470028F9D19DF8F6
:1006D000070003B030BD00BF00060E408F0740008A
:1006E00010B5054B0B209847BDE81040034B4FF069
:1006F00040510720184700BF4D0B400091084000B3
:1007000010B5054B07209847BDE81040034B4FF04C
:1007100040510720184700BF77084000910840006B
:1007200010B5054B07209847BDE81040034B4FF02C
:1007300060510720184700BF5D0840009108400045
:10074000AC2310B50360D1E90032B3FBF2F31B090F
:100750005C1E4FF6FE7294420AD803628B684360B7
:1007600040F20223C0F8203150230360002010BD66
:100770000120FCE7402303607047102303607047AB
:1007800043699B0746BFC161002001207047436950
:10079000DB0743BF83690B70002001207047B1F174
:1007A000C05F426426D007D8B1F1006F12D0B1F11A
:1007B000805F1CD061B97047B1F1005F23D007D3CF
:1007C000B1F1405F05D021F08051B1F1205F00D040
:1007D00042607047016F036F0B4023EA0203036717
:1007E000416F436F0B4023EA02034367F0E7036F57
:1007F0001343F4E7016F036F0B4023EA020303671F
:10080000436F1343F1E7036F1343F8E7D3074164E2
:100810004CBF4166016612F00A0F14BF01624162CB
:10082000930704D5C0F88010416101607047130739
:1008300048BFC0F88410F7E710B5029C41643CB192
:1008400041663BB101653AB101630161016010BDD0
:100850000166F6E74165F6E74163F6E7430903F50C
:10086000001303F207735B0200F01F00012202FA7B
:1008700000F018637047430903F5001303F2077390
:100880005B0200F01F00012202FA00F0586370477B
:1008900073B5044640090D4600F5001001F0F04123
:1008A00000F20770B1F1005F4FEA40201ED00CD873
:1008B000B1F1805F1AD0B1F1C05F17D0B1F1006F14
:1008C00014D00026304602B070BD05F0E043B3F10D
:1008D000405F19D0B1F1205FF3D104F01F0401266D
:1008E000134B2A4606FA04F19847EBE704F01F027F
:1008F000012404FA02F20F4B984715EA040612BFCE
:10090000426602662646DDE705F06052012602F1E6
:10091000484105EA06034A4204F01F0400934A4195
:10092000C5F3800306FA04F1034CA047CAE700BFF1
:100930000D0840009F0740003908400010B52C4AC0
:100940002C4B116B01F0030101292AD00239012936
:100950001DD8116ACC0148D427491960116A01F0E9
:10096000700110293ED020293FD0106B196800F08B
:10097000030002280BBF946AD46A906AD06AC4F359
:100980000A4404FB0111C0B2B1FBF0F107E01B49BE
:10099000496A08064CBF4FF400414FF4FA41196010
:1009A0000DE0116AC90101D51549F8E7124919602E
:1009B000116A01F07001102912D02029F4D0106BB7
:1009C000196800F0700070281BBF126BC2F302128E
:1009D000032221FA02F208BFB1FBF2F21A6010BD45
:1009E0000849DCE707491960BFE70549FBE700BF95
:1009F00000040E400000002000093D0000140E40DD
:100A0000001BB70000127A000E4B98420E4B03D821
:100A10004FF080621A6070470C4A904201D20C4A33
:100A2000F8E70C4A904201D20B4AF3E70B4A904296
:100A300001D80B4AEEE70B4A90428CBF0A4A4FF0AE
:100A40000422E7E7FF2C3101000A0E40005A62023F
:100A5000000100040087930300020004FFB3C404F4
:100A600000030004FFE0F505000500040E4B1A6BBF
:100A700022F003021A6340F60102996E09070BD5B2
:100A80001A6B22F070021043186340F60102996E4F
:100A9000090705D500207047013AEED101207047C3
:100AA000013AF4D1FAE700BF00040E400F4B1A6B75
:100AB00022F0030242F001021A6340F60102996E2D
:100AC00009070BD51A6B22F070021043186340F629
:100AD0000102996E090705D500207047013AEED151
:100AE00001207047013AF4D1FAE700BF00040E403C
:100AF0000F4A30B1136A0F4919400F4B0B43136271
:100B00007047106A0B0220F45C119BB221F00301C4
:100B10000B4343F45C1343F001031362936EDB0752
:100B2000FCD5136A43F09B7343F48033E7E700BFBF
:100B300000040E40FCFFC8FE02003701024B986E15
:100B400000F48030704700BF00040E40222818D8FF
:100B50001F280D4A4FF0010308D8916903FA00F0ED
:100B600030EA010300D0106100207047D2F808116C
:100B7000203803FA00F030EA0103F5D0C2F8000192
:100B8000F2E70120704700BF00040E40034B18B18C
:100B9000034AC3F8E4207047024AFAE700040E4013
:100BA00001434D5000434D5073B5274B274A1B68F6
:100BB00003F1100118781070587850709878907080
:100BC000D878D07004338B4202F10402F2D1204B6A
:100BD0002048214C04211A6801928D0714D1C2F3D8
:100BE0000746C2F30725865D8DF80560160ED2B262
:100BF000455D825C8DF807208A08865DA25C8DF8D1
:100C000006606A408DF8042013F80C2C9DF80450FF
:100C10006A401A719DF8055013F80B2C6A405A71FE
:100C20009DF8065013F80A2C6A409A719DF80750F7
:100C300013F8092C01316A402C29DA7103F10403FD
:100C4000C9D102B070BD00BFF0010020F401002046
:100C5000000200200F00002004000020F0B50B4B24
:100C60000B4E196800010A1D1431131F35181C782A
:100C700015F8017B7C4003F8014B9342F7D11A1D14
:100C80008A4200F10400F0D1F0BD00BFB4020020A0
:100C9000F4010020F7B5134B134F1968DFF84CC06F
:100CA00000220125BC18002314F8016BF00741BF96
:100CB0000095009801300090B00741BF0195019860
:100CC0000130019011F823001CF8000001F8230006
:100CD0000133042BE8D10432102A01F10101E1D1E2
:100CE00003B0F0BDB4020020A40200200F000020D9
:100CF0002E4A5378DB0788B004D500230093009B6D
:100D0000013300939378980704D500230193019B46
:100D100001330193264B1B68587959785870587ADB
:100D20005871587B597311795872C90704D500213D
:100D30000291029901310291917A880704D500212C
:100D40000391039901310391987A99789870997277
:100D50005179C90704D50021049104990131049106
:100D6000117A880704D50021059105990131059173
:100D70009979987B997311789871C90704D50021E6
:100D80000691069901310691D278920704D5002286
:100D90000792079A01320792D97BDA78D970D97A0B
:100DA000D973D979D972DA7108B07047A4020020DA
:100DB000B4020020C30903EB430303EBC30383EA3C
:100DC0004000C0B2704700002DE9F04F85B02E4DB5
:100DD0000020A847012401952C4BDFF8B4909847D8
:100DE0002C4B98472C4B00211A680B462B4892F845
:100DF00000A010F821505778EE0744BF02930298E4
:100E0000967844BF01300290A80744BF039303982B
:100E1000D57844BF0130039086EA050B8AEA0700C3
:100E200080EA0B08C8478AEA080C80EA0C001070B8
:100E300087EA0600C84787EA0807474057705846C0
:100E4000C84786EA0806464096708AEA0500C84701
:100E500085EA0805013145400429D5704FF00003AB
:100E600002F10402C2D120460134019BE4B298474A
:100E70000A2CB1D1054B9847064B9847019B204659
:100E800005B0BDE8F04F18475D0C4000950C4000E0
:100E9000B50D4000F10C4000B4020020A402002077
:100EA0004B1E01380F3113F8012F00F8012F8B4230
:100EB000F9D17047014B1860014B1847F001002031
:100EC000A90B400010B5054B01461860044B0548BE
:100ED0009847BDE81040044B184700BFB4020020FB
:100EE000A10E4000A4020020C90D40007047000080
:100EF000004B1847B50E4000004B1847C50E400088
:100F0000704770477047000070B50D4E0D4D761B51
:100F1000B61006D0002455F8043B01349847A64289
:100F2000F9D1094E094D761B00F008F9B61006D02C
:100F3000002455F8043B01349847A642F9D170BD0E
:100F400048114000481140004C1140004811400039
:100F5000844641EA000313F003036DD1403A41D3C4
:100F600051F8043B40F8043B51F8043B40F8043B83
:100F700051F8043B40F8043B51F8043B40F8043B73
:100F800051F8043B40F8043B51F8043B40F8043B63
:100F900051F8043B40F8043B51F8043B40F8043B53
:100FA00051F8043B40F8043B51F8043B40F8043B43
:100FB00051F8043B40F8043B51F8043B40F8043B33
:100FC00051F8043B40F8043B51F8043B40F8043B23
:100FD00051F8043B40F8043B51F8043B40F8043B13
:100FE000403ABDD2303211D351F8043B40F8043BB3
:100FF00051F8043B40F8043B51F8043B40F8043BF3
:1010000051F8043B40F8043B103AEDD20C3205D3C2
:1010100051F8043B40F8043B043AF9D2043208D0BA
:10102000D2071CBF11F8013B00F8013B01D30B882C
:1010300003806046704700BF082A13D38B078DD00A
:1010400010F003038AD0C3F10403D21ADB071CBFDC
:1010500011F8013B00F8013B80D331F8023B20F846
:10106000023B7BE7043AD9D3013A11F8013B00F87F
:10107000013BF9D20B7803704B7843708B78837007
:1010800060467047830730B548D0541E002A3FD0D1
:10109000CAB2034601E0013C3AD303F8012B9D0795
:1010A000F9D1032C2DD9CDB245EA05250F2C45EAFF
:1010B000054536D9A4F1100222F00F0C03F1200EE1
:1010C000E6444FEA121C03F1100242E9045542E9DA
:1010D000025510327245F8D10CF1010214F00C0FD8
:1010E00003EB021204F00F0C13D0ACF1040323F055
:1010F00003030433134442F8045B9342FBD10CF026
:1011000003042CB1CAB21C4403F8012B9C42FBD14E
:1011100030BD64461346002CF4D1F9E7034614466B
:10112000BFE71A46A446E0E72B7E151628AED2A6E6
:10113000ABF7158809CF4F3C00000000F8B500BFA1
:10114000F8BC08BC9E46704735014000F8B500BFAA
:0C115000F8BC08BC9E4670470D01400032
:10115C0000093D008D01020408102040801B3663FD
:10116C007C777BF26B6FC53001672BFED7AB76CAF1
:10117C0082C97DFA5947F0ADD4A2AF9CA472C0B716
:10118C00FD9326363FF7CC34A5E5F171D831150423
:10119C00C723C31896059A071280E2EB27B275098C
:1011AC00832C1A1B6E5AA0523BD6B329E32F8453BF
:1011BC00D100ED20FCB15B6ACBBE394A4C58CFD084
:1011CC00EFAAFB434D338545F9027F503C9FA85154
:1011DC00A3408F929D38F5BCB6DA2110FFF3D2CD27
:1011EC000C13EC5F974417C4A77E3D645D197360C4
:1011FC00814FDC222A908846EEB814DE5E0BDBE0D1
:10120C00323A0A4906245CC2D3AC629195E479E780
:10121C00C8376D8DD54EA96C56F4EA657AAE08BA0E
:10122C0078252E1CA6B4C6E8DD741F4BBD8B8A70C6
:10123C003EB5664803F60E613557B986C11D9EE171
:10124C00F8981169D98E949B1E87E9CE5528DF8CAE
:10125C00A1890DBFE6426841992D0FB054BB160011
:0400000500400511A1
:00000001FF
