:020000040040BA
:1000000020100020590240005502400055024000D7
:10001000550240005502400055024000000000001B
:100020000000000000000000000000005502400039
:1000300055024000000000005502400055024000FB
:100040005502400055024000550240005502400054
:1000500055024000550240005502400000000000DB
:1000600055024000550240000000000055024000CB
:1000700055024000000000005502400055024000BB
:100080000000000000000000550240005502400042
:100090005502400055024000550240005502400004
:1000A0005502400055024000000000000000000022
:1000B000000000005502400055024000550240007B
:1000C00055024000550240005502400010B5054C55
:1000D000237833B9044B13B10448AFF300800123F4
:1000E000237010BD04000020000000004C0A4000F6
:1000F00008B5034B1BB103490348AFF3008008BDAB
:1001000000000000080000204C0A400082B00023DC
:10011000019340F6FE72019B934201D902B07047F1
:10012000019B01330193F6E77047704738B5044DE2
:1001300004462078A84714F8013F002BF9D138BDB8
:10014000E90340002DE9F041DFF8308004460E4617
:100150000025B5420DDA6719C047C0B260550028C6
:10016000FAD00A2803D100233B70BDE8F0810135A5
:10017000EFE73444002304F8013CF6E705044000AF
:1001800070B5224B224C234D8CB09847224B984798
:10019000224B9847224B186802909B882148ADF863
:1001A0000C30A0472048A0472048A847A047204837
:1001B000A047204B98472048A04720211F4B04A868
:1001C00098471F4B984702A904AA062311F8016B10
:1001D00012F8010B864217D1013B13F0FF03F5D152
:1001E0001848A047184B012098470CE0019B0133A9
:1001F0000193019B002BF9DD1448A847A847A047AD
:10020000134B01209847FEE70023F1E7ED02400081
:100210002D0140000D0140008503400029044000ED
:10022000230A40006409400087094000A4094000F7
:10023000A709400049044000D6094000450140009C
:1002400069044000090A400029014000FA09400001
:100250002B014000FEE7000019491A48814210B501
:1002600020D9194BDA1C121A22F00302C41EA34231
:1002700038BF0022154B984700BF154B1548DA1CB4
:10028000121AC11E22F00302994288BF0022124BAB
:1002900000219847114B124A9A60124B9847124B13
:1002A0009847FEE7E8D2084B0A1F181A1044C1F11C
:1002B0000401C842E0D050F8042943F8042DF8E7BF
:1002C0004C0A4000000000200400002039094000D2
:1002D00020000020040000205509400000ED00E04F
:1002E00000004000F108400081014000184B4FF42D
:1002F000004270B500205A65164D174C174EA8479E
:100300000120A8470520A847154B0020984715480D
:10031000A047154B00209847144B3E2101209847D9
:10032000B0470028FCD0124B00209847114B98474B
:100330001148A047114A136823F0806313600B2013
:10034000A847BDE870400E4B4FF060510F20184792
:1003500000140E40950840005107400085084000F9
:10036000D5084000000E2707B507400039084000B7
:10037000F50740008506400010757000000A0E4029
:10038000D90540001FB5104B104C4FF46132CDE938
:1003900001324FF40063039308200D4B984701A9E5
:1003A0000C4B2046984720460B4B98470B4B20465A
:1003B00098470B4C0B490920A0474FF000610A20D9
:1003C000A04704B010BD00BF90AD710000060E4004
:1003D0009508400089044000C3044000BD0440006B
:1003E000D90540000100000870B5044E044D0446D4
:1003F00021463046A8470028FAD170BD00060E40BD
:10040000C904400037B5064D064C0DF107012846DA
:10041000A0470028F9D19DF8070003B030BD00BF08
:1004200000060E40D704400010B5054B0B2098473E
:10043000BDE81040034B4FF040510720184700BF64
:1004400095084000D905400010B5054B0720984796
:10045000BDE81040034B4FF040510720184700BF44
:10046000BF054000D905400010B5054B072098474F
:10047000BDE81040034B4FF060510720184700BF04
:10048000A5054000D9054000AC2310B50360D1E9B3
:100490000032B3FBF2F31B095C1E4FF6FE7294426E
:1004A0000AD803628B68436040F20223C0F820310F
:1004B00050230360002010BD0120FCE740230360AF
:1004C000704710230360704743699B0746BFC161B3
:1004D0000020012070474369DB0743BF83690B702D
:1004E000002001207047B1F1C05F426426D007D8D8
:1004F000B1F1006F12D0B1F1805F1CD061B97047CB
:10050000B1F1005F23D007D3B1F1405F05D021F0F6
:100510008051B1F1205F00D042607047016F036FDE
:100520000B4023EA02030367416F436F0B4023EA4A
:1005300002034367F0E7036F1343F4E7016F036FB0
:100540000B4023EA02030367436F1343F1E7036F92
:100550001343F8E7D30741644CBF4166016612F0CC
:100560000A0F14BF01624162930704D5C0F88010DE
:10057000416101607047130748BFC0F88410F7E776
:1005800010B5029C41643CB141663BB101653AB192
:1005900001630161016010BD0166F6E74165F6E7A0
:1005A0004163F6E7430903F5001303F207735B02A7
:1005B00000F01F00012202FA00F01863704743099F
:1005C00003F5001303F207735B0200F01F00012222
:1005D00002FA00F05863704773B5044640090D46AF
:1005E00000F5001001F0F04100F20770B1F1005F7A
:1005F0004FEA40201ED00CD8B1F1805F1AD0B1F183
:10060000C05F17D0B1F1006F14D00026304602B0A1
:1006100070BD05F0E043B3F1405F19D0B1F1205F48
:10062000F3D104F01F040126134B2A4606FA04F105
:100630009847EBE704F01F02012404FA02F20F4B83
:10064000984715EA040612BF426602662646DDE7B1
:1006500005F06052012602F1484105EA06034A42CC
:1006600004F01F0400934A41C5F3800306FA04F125
:10067000034CA047CAE700BF55054000E70440000F
:100680008105400010B52C4A2C4B116B01F0030181
:1006900001292AD0023901291DD8116ACC0148D478
:1006A00027491960116A01F0700110293ED02029F4
:1006B0003FD0106B196800F0030002280BBF946A4A
:1006C000D46A906AD06AC4F30A4404FB0111C0B230
:1006D000B1FBF0F107E01B49496A08064CBF4FF433
:1006E00000414FF4FA4119600DE0116AC90101D5CA
:1006F0001549F8E712491960116A01F070011029D3
:1007000012D02029F4D0106B196800F07000702806
:100710001BBF126BC2F30212032221FA02F208BFBE
:10072000B1FBF2F21A6010BD0849DCE70749196015
:10073000BFE70549FBE700BF00040E4000000020B2
:1007400000093D0000140E40001BB70000127A00A3
:100750000E4B98420E4B03D84FF080621A607047E0
:100760000C4A904201D20C4AF8E70C4A904201D25E
:100770000B4AF3E70B4A904201D80B4AEEE70B4ACB
:1007800090428CBF0A4A4FF00422E7E7FF2C310168
:10079000000A0E40005A6202000100040087930321
:1007A00000020004FFB3C40400030004FFE0F505E9
:1007B000000500040E4B1A6B22F003021A6340F688
:1007C0000102996E09070BD51A6B22F070021043D3
:1007D000186340F60102996E090705D5002070479D
:1007E000013AEED101207047013AF4D1FAE700BF97
:1007F00000040E400F4B1A6B22F0030242F001027C
:100800001A6340F60102996E09070BD51A6B22F0A4
:1008100070021043186340F60102996E090705D56E
:1008200000207047013AEED101207047013AF4D11F
:10083000FAE700BF00040E400F4A30B1136A0F49B7
:1008400019400F4B0B4313627047106A0B0220F4E0
:100850005C119BB221F003010B4343F45C1343F0A2
:1008600001031362936EDB07FCD5136A43F09B739D
:1008700043F48033E7E700BF00040E40FCFFC8FEEE
:1008800002003701024B986E00F48030704700BFC1
:1008900000040E40222818D81F280D4A4FF00103EB
:1008A00008D8916903FA00F030EA010300D0106122
:1008B00000207047D2F80811203803FA00F030EA1F
:1008C0000103F5D0C2F80001F2E70120704700BF34
:1008D00000040E40034B18B1034AC3F8E4207047EC
:1008E000024AFAE700040E4001434D5000434D50C8
:1008F00070B50D4D0D4C641BA4100026A64209D105
:100900000B4D0C4C00F092F8641BA4100026A6427C
:1009100005D170BD55F8043B98470136EEE755F810
:10092000043B98470136F2E7380A4000380A400095
:10093000380A40003C0A40000A44914200F1FF336B
:1009400000D1704710B511F8014B03F8014F9142E7
:10095000F9D110BD02440346934200D1704703F819
:10096000011BF9E72A2A2A2A2A536166652D6F2D71
:100970006D61746963203330303020426F6F746969
:100980006E672E2E2E0A0044656372797074696E4C
:10099000672064617461626173652E2E5B444F4E03
:1009A000455D0A000A0A005741524E494E473A2017
:1009B000554E415554484F52495A454420414343AE
:1009C0004553532057494C4C2042452050554E49E1
:1009D000534845440A00506C6561736520656E7428
:1009E00065722070617373776F726420746F206317
:1009F0006F6E74696E75653A200050415353574FBE
:100A00005244204641494C0A004163636573732098
:100A10006772616E7465642C2057656C636F6D65D9
:100A2000210A00683070783300000000F8B500BF7C
:100A3000F8BC08BC9E467047F1004000F8B500BF06
:0C0A4000F8BC08BC9E467047CD0040008A
:040A4C0000093D0060
:04000005004002595C
:00000001FF
